:020000040800F2
:100000000834002079020008EF4400088735000812
:10001000ED440008791600086B610008000000003C
:10002000000000000000000000000000E1010008E6
:10003000ED1600080000000025020008A94800088D
:10004000930200089302000893020008930200083C
:10005000930200089302000893020008EF160008BC
:10006000930200089302000893020008930200081C
:10007000930200089302000893020008930200080C
:1000800093020008930200089302000893020008FC
:10009000F56000089302000893020008930200082C
:1000A000930200084D4900089302000893020008DB
:1000B0009302000893020008930200089535000897
:1000C0008935000893020008930200089302000893
:1000D00093020008930200089302000893020008AC
:1000E00093020008930200089302000800F002F84F
:1000F00000F067F80AA090E8000C82448344AAF15B
:100100000107DA4501D100F05CF8AFF2090EBAE858
:100110000F0013F0010F18BFFB1A43F0010318473B
:10012000687D0000887D00000A444FF0000C10F844
:10013000013B13F0070408BF10F8014B1D1108BF65
:1001400010F8015B641E05D010F8016B641E01F805
:10015000016BF9D113F0080F1EBF10F8014BAD1C55
:100160000C1B09D16D1E58BF01F801CBFAD505E073
:1001700014F8016B01F8016B6D1EF9D59142D6D3CD
:10018000704700000023002400250026103A28BFF5
:1001900078C1FBD8520728BF30C148BF0B607047F9
:1001A000662907F0B185002070471FB500F036FCC6
:1001B00004000020002107F07FFCE0601FBD10B5A7
:1001C00010BD00F02BFD1146FFF7EFFF05F0FAFF21
:1001D00000F049FD03B4FFF7F2FF03BC00F08CFD13
:1001E000224B19680868B0E8F00F80F30988BFF364
:1001F0006F8F4FF0000080F311884EF00D0E7047A6
:100200000000000006480068006880F3088862B6B5
:1002100061B6BFF34F8FBFF36F8F00DF00BF00BF2A
:1002200008ED00E0EFF30980BFF36F8F0F4B1A6802
:1002300020E9F00F106008B54FF0500080F31188EE
:10024000BFF34F8FBFF36F8F06F046FF4FF00000F4
:1002500080F31188BDE8084019680868B0E8F00F1D
:1002600080F30988BFF36F8F704700BF98010020AB
:10027000EFF30580704700000948804709480047B0
:10028000FEE7FEE7FEE7FEE7FEE7FEE7FEE7FEE746
:10029000FEE7FEE704480549054A064B70470000A3
:1002A0004B490008ED000008082E0020083400200B
:1002B00008300020083000200FB41CB5074B06AAF8
:1002C0007B4469460090059800F06DFB002069466C
:1002D00000F07CFB1CBC5DF814FB0000090700006B
:1002E0002DE9F0474FF0000A89460446C0F820A0E7
:1002F0002046E1688847002876D0252806D0D4E932
:1003000001219047206A401C2062F1E7E168204605
:1003100000258847C4F81CA006460027C4F818A08A
:100320002A2E09D0304605F045FF38B304EB870884
:10033000303EC8F8186019E059F8041B204604EB59
:1003400087029161E1688847012F064618D1E0696C
:10035000002820DA25F020051DE0D8F8180000EB71
:10036000800006EB40003038C8F818002046E168ED
:100370008847064605F01EFF0028EED1012F0AD05F
:100380002E2E08D12046E16888477F1C0646022FA2
:1003900045F02005C4DBA069002803DA404245F09F
:1003A0000105A061E80701D025F01005B6B1A6F15E
:1003B0004100192802D8203645F400654A463146E6
:1003C000204625604D46FFF7EBFE58B1012806D0C8
:1003D000ED1D25F0070000F1080989E704E005F1AB
:1003E000040985E730468AE7206ABDE8F08710B542
:1003F000431C02E010F8011B71B18107FAD14FF0E4
:10040000013202C88C1A8C4314EAC211F9D0C01A06
:100410000A0603D0C01E10BDC01A10BD0A0401D0C8
:10042000801E10BD0902FCD0401E10BD032A40F200
:10043000308010F0030C00F0158011F8013BBCF186
:10044000020F624498BF11F801CB00F8013B38BF9E
:1004500011F8013BA2F1040298BF00F801CB38BFAC
:1004600000F8013B11F0030300F02580083AC0F0CA
:10047000088051F8043B083A51F804CBA0E8081072
:10048000F5E7121D5CBF51F8043B40F8043BAFF3A5
:100490000080D20724BF11F8013B11F801CB48BFFF
:1004A00011F8012B24BF00F8013B00F801CB48BF35
:1004B00000F8012B704710B5203AC0F00B80B1E86E
:1004C0001850203AA0E81850B1E81850A0E8185089
:1004D000BFF4F5AF5FEA027C24BFB1E81850A0E892
:1004E000185044BF18C918C0BDE810405FEA827CAC
:1004F00024BF51F8043B40F8043B08BF7047D207C3
:1005000028BF31F8023B48BF11F8012B28BF20F863
:10051000023B48BF00F8012B704702F0FF0343EA9B
:10052000032242EA024200F058BA4FF0000200B53E
:10053000134694469646203922BFA0E80C50A0E806
:100540000C50B1F12001BFF4F7AF090728BFA0E8B4
:100550000C5048BF0CC05DF804EB890028BF40F880
:10056000042B08BF704748BF20F8022B11F0804FC2
:1005700018BF00F8012B70477047704770477047ED
:100580002DE9FF4F0C461E464FF0FF378BB0D2E9E6
:100590000001DDF860800A908A46C1F30A5505B96A
:1005A0003D46002108464FF00000BAF1000F00F46C
:1005B000400005DA00EB80004FF4400101EA5000F2
:1005C0004FEA9059B9F1010F00DDB9460A9850EA97
:1005D0004A000ED044F61050A5F2FF3545432F14C3
:1005E000B8F1000F1ED07542291E1EDDC9F10002B0
:1005F0001CE0B8F1010F4FF0000001D0302103E002
:10060000F24305E02154401CB042FBDB304600229F
:10061000002121540B99C1F80880C1E900200FB0D6
:10062000BDE8F08FBD1B6D1CDEE74A4600DA69426B
:1006300006A800F07DFA06AB93E8070003AB83E859
:10064000070050460A9900F05EFB8DE80700A0F510
:1006500000501F3800900398002D0ADD42F21F0160
:100660004A460844002303A90390684600F0C7FDEA
:1006700009E0A0F500504A461F38002303A9039063
:10068000684600F0D1FD8DE807000004000C03D09F
:100690004FF0FF30410800E01046B8F1000F03D0E2
:1006A0000022009215461EE0751E05D400F0BAF92E
:1006B000303262556D1EF9D5B3460122084302D08F
:1006C00000227F1C04E02078302801D100227F1E08
:1006D000002A099784D01DE0112D07DA00F0A2F955
:1006E000303262556D1C50EA0102F5D1084302D048
:1006F0000098C8B10EE00021681E05E0235C625C32
:1007000063542254401E491C8142F7DBAB46A81BB0
:10071000401E0990002004F80B000B98099AC0F8BD
:100720000880C0E9002B7AE711264FF0000857E750
:100730002DE9F04F88460446D21D22F0070191B002
:10074000D1E90001CDE90A0105F010FD02460B9840
:10075000C00F01D02D2007E02068810701D52B2094
:1007600002E0202101EAC000032A099001D0072AF3
:1007700005DB03464146204600F09AF90BE120785C
:10078000800601D5E06900E00620B8F1650F8146DA
:1007900006D0B8F1660F18D0B8F1670F70D131E00C
:1007A0000020B9F1110F009001DB112301E009F1E4
:1007B00001030AAA01A90CA8FFF7E2FEDDE90C700B
:1007C000002609F10105834647E001204B460090D1
:1007D0004FF000470AAA01A90CA8FFF7D1FEDDE9F6
:1007E0000DB00C995D46002610B909F101000D18F5
:1007F000B9EB050003D4C0F1FF3609F10105A5EB03
:1008000009002BE0B9F1010F01DA4FF001090020D6
:10081000B9F1110F0090484601DD112300E00346B5
:100820000AAA01A90CA8FFF7ABFEDDE90C704D4642
:1008300000268346207800070AD4AB4500DA5D46DF
:1008400001A8012D04DD411911F8011C302907D040
:100850004F4502DA17F1040F04DA012082460FE057
:100860006D1EEEE7002F02DCED1B3E4403E0781C1A
:10087000A84200DD7D1CB81B00F1010A4FF00047C3
:100880002078000703D4AA4501DB4FF0FF3A00218E
:10089000B7F1004F0DF143088DF8431024D002202A
:1008A0002B23002F01DA7F422D230A21021EA0F103
:1008B000010000DC5FB197FBF1FC97FBF1F201FB5B
:1008C0001C7C17460CF1300C08F801CDEEE7A8F1BE
:1008D000010003702188090501D5452100E065214B
:1008E000A0F1010800F8011C09980FA9A1EB080765
:1008F000FF1D00B10120411901EBEA70A1693844E4
:10090000081A401EA0612078C00602D42046AFF32A
:100910000080099828B1D4E901219047206A401C41
:1009200020622078C00622D52046AFF300801EE06A
:10093000002E04DBB34502DD01A8805D00E030201D
:10094000D4E901219047206A401C2062761CAAF15C
:1009500001005FEA000A0AD100F060F8C06801688F
:10096000405CD4E901219047206A401C2062281E87
:10097000A5F10105DCDC07E0D4E9012118F8010B41
:100980009047206A401C2062381EA7F10107F3DC63
:100990002046AFF30080032011B041E601694A1CF4
:1009A00002610878704700B58FB0CDE901310021B0
:1009B000059105497944CDE9031011466846FFF7D2
:1009C0008FFC0FB000BD0000E5FFFFFF0A6802F8D2
:1009D000010B0A6070474FF000020429C0F012803A
:1009E00010F0030C3FF4A3ADCCF1040CBCF1020FEA
:1009F00018BF00F8012BA8BF20F8022BA1EB0C01B7
:100A0000FFF795BD5FEAC17C24BF00F8012B00F819
:100A1000012B48BF00F8012B7047000000487047C9
:100A2000C82D002030B5B0F10A024FEA900E71F1E6
:100A300000034EEA817EB0EB0E0061EB91014FEABC
:100A4000101E4EEA017E10EB0E0041EB11114FEA31
:100A5000102E4EEA016E10EB0E0041EB11214FEA11
:100A6000104E4EEA014E10EB0E0041EB11414018C2
:100A700041F100014FEAD00040EA41704FEAD10154
:100A800010EB80054FEA810444EA907444EB0104C2
:100A90006D1944EB0404521BA3414FF0000348BFFF
:100AA0000A3200D530BD401C41F1000130BD0000CC
:100AB0002DE9F0411F46044603260168072A01F488
:100AC000006004DB08B116A505E016A503E008B137
:100AD00015A500E015A521F010002060A069C01E3A
:100AE000A0610FB1401EA0612046AFF300804FB15E
:100AF000D4E9012138469047206A401C2062C01C7E
:100B0000206206E0206AFAE7D4E9012115F8010B1A
:100B10009047761EF8D22046AFF30080BDE8F08102
:100B20004E414E006E616E00494E4600696E660091
:100B30002DE9F047814616468AB0354878440DC8FD
:100B40008DE80D0032487844801C03AC0DC884E861
:100B50000D0041F69B300844372190FBF1F290FBE9
:100B6000F1F5A5F1800501FB12041B3C02D564429E
:100B7000012000E00020DFF898A080460027FA441A
:100B8000AAF1BE0A0EE0E0070AD03246684607EB3B
:100B9000470101230AEB810100F046FB8DE80700C5
:100BA00064107F1C002CEED1194F7F44AE3F19E03A
:100BB000E80715D007EB04100DF1180A90E80E00B5
:100BC0008AE80E00C068F04201D1981908903246B8
:100BD000012306A903A800F027FB03AB83E8070065
:100BE0006D10641C002DE3D14FF0010332466946BD
:100BF000B8F1000F03A802D000F001FB01E000F003
:100C000013FBC9E90001C9F808200AB0BDE8F08764
:100C10000473000000487047A82D00207546FFF7B8
:100C2000F9FFAE4605006946534620F007008546A9
:100C300018B020B5FFF72EFBBDE820404FF00006AE
:100C40004FF000074FF000084FF0000B21F00701B4
:100C5000AC46ACE8C009ACE8C009ACE8C009ACE8F7
:100C6000C0098D46704710B50446AFF3008020469A
:100C7000BDE81040FFF7AEBA4FF0013C50F8042B2E
:100C800051F8043B9A4221D1A2EB0C03934313EA9F
:100C9000CC1317D150F8042B51F8043B9A4215D1CC
:100CA000A2EB0C03934313EACC130BD150F8042BA3
:100CB00051F8043B9A4209D1A2EB0C03934313EA87
:100CC000CC13DBD04FF00000704700BFD01A01BA40
:100CD000B1FA81F101F0180122FA01F0CB40C1F123
:100CE0002001DBB2C0B2C01A2CFA01F3D11A914331
:100CF00011EAC311E6D1704701491820ABBEFEE7E7
:100D00002600020070475FEA400C08BF91F0000F18
:100D10004FEA8C234FEAC12243EA51514FEA1C505B
:100D200018BF00F5F0404FEA300018BF41F0004115
:100D30005FEA6C5C00F02980BCF1FF3F08BF40F027
:100D400080407047130C06BF12044FF0100C4FF098
:100D5000000C130E04BF12020CF1080C130F04BF99
:100D600012010CF1040C930F04BF92000CF1020C61
:100D7000D30F04BF52000CF1010C11464FF00002DA
:100D8000A0F11F00A0EB0C00704711F0004F08BF4E
:100D9000704731F000413FF4D5AF0B0C06BF09049A
:100DA0004FF0100C4FF0000C0B0E04BF09020CF1B9
:100DB000080C0B0F04BF09010CF1040C8B0F04BFCE
:100DC00089000CF1020CCB0F04BF49000CF1010C9F
:100DD000CCF12003A0EB0C0022FA03F302FA0CF290
:100DE00041EA030100F10100704720F07F4C80EAE6
:100DF000030023F07F47ACEB070303F57C5300F0BF
:100E0000004003F1FF032DE980494FEA154B09B477
:100E10004FEA144325EA0B4E24EA03480FF2042656
:100E200006EB132749083E785FEA320203FB0667A8
:100E3000C7F5000707FB06F64FEA54374FEAD646D8
:100E400006F1020607FB066CCCF1005C4FEA1C477A
:100E50002CEA074C07FB06F40CFB06F504EB1546E1
:100E60004FEA961634BF00204FF000404FEAD137CA
:100E700006FB07FC4FEA1C4C0CFB0BF7D21B03FBD9
:100E80000CF761EB07010CFB0EF7B0EB074072EBC0
:100E900017420CFB08F734BFA2EB0742B2EB074244
:100EA00061EB17414FEA0C444FEA910706FB07FC40
:100EB0004FEA1C4C0CFB0BF7B0EBC74072EB573200
:100EC00003FB0CF734BFA2EBC742B2EBC74261EBA6
:100ED00057310CFB0EF7B0EBC70072EB57720CFBEF
:100EE00008F734BFA2EBC702B2EBC70261EB577140
:100EF000039F4FEA816141EA921104EBCC044FEA6F
:100F0000D1374FEA826206FB07FC42EA90124FEAB1
:100F100080604FEA1C4C0CFB0BF7D21B03FB0CF759
:100F200061EB07010CFB0EF7B0EB074072EB1742C9
:100F30000CFB08F734BFA2EB0742B2EB074261EBB0
:100F400017414FEA8C554FEA910704EB9C2406FBAE
:100F500007FC4FEA1C4C0CFB0BF7B0EBC74072EBE5
:100F6000573203FB0CF734BFA2EBC742B2EBC742C8
:100F700061EB57310CFB0EF7B0EBC70072EB577209
:100F80000CFB08F734BFA2EBC702B2EBC70261EB60
:100F9000577115EB4C254FEA816141EA92114FEAF6
:100FA00082624FEAD13742EA901206FB07FC44F115
:100FB00000044FEA80604FEA1C4C0CFB0BF7D21B7D
:100FC00003FB0CF761EB07010CFB0EF7B0EB0740DE
:100FD00072EB17420CFB08F734BFA2EB0742B2EBEF
:100FE000074261EB174115EB1C154FEA813141EACD
:100FF00092414FEA823242EA90424FEA80304FEA11
:101000000C7644F1000448EA03434EEA0B484FF0E3
:10101000000EB2EB080C71EB030724BF62463946A1
:101020004EEB0E0E4FF0000B0018524149414BEBB6
:101030000B0BB2EB080C71EB03077BF1000B24BF29
:10104000624639464EEB0E0E4FF0000B001852412F
:1010500049414BEB0B0BB2EB080C71EB03077BF137
:10106000000B24BF624639464EEB0E0E51EA0207D2
:1010700018BF46F0010616EB0E7655F1000254F14A
:10108000000103D5BDE88901BDE80088BDE88901FC
:10109000BDE80048B619524141EB0101A3F101033B
:1010A000704780807F7E7D7C7B7A797877767675D5
:1010B0007473727171706F6E6E6D6C6C6B6A6A694D
:1010C0006868676666656464636362616160605FE7
:1010D0005F5E5E5D5D5C5C5B5B5A5A595958585760
:1010E00057565655555554545353525252515150C8
:1010F00050504F4F4F4E4E4D4D4D4C4C4C4B4B4B1B
:101100004A4A4A4949494848484747474746464660
:10111000454545444444444343434342424242419B
:101120004141002B9C4630D477002BD01CB54FEAB0
:10113000370703B44FF010004FF01001BAF1000F61
:1011400006D0BCF1000FDCBF40F0080040F0080101
:101150004FF000000FBCBDE810400BF1010BBBF1DC
:10116000010F08BF5FEA170722BF12F1010211F158
:1011700001014FF0004143F1000300F0004043EA59
:1011800000007047F9D35708D0E746EA064613F146
:10119000400F4FEA16461FDD13F1200FDFBF164345
:1011A0000A46002120335B42BED0C3F1200746EA45
:1011B000064602FA07F74FEA164646EA0706C3F163
:1011C000200722FA03F201FA07F721FA03F14FF0A0
:1011D000000342EA0702A7E746EA020646EA064695
:1011E0004FEA164646EA0106BCBF46EA0646360CFA
:1011F0004FF000034FF000024FF0000194E72DE99B
:10120000804C9A46934670B491E8380007C831EA9A
:10121000400C48BF34EA430C03D5FFF7E6FDFFF767
:1012200080FFF0BCBDE8008C2DE9804C9A469346C7
:1012300070B491E8380007C810F0804F08BF13F071
:10124000804F03D100F005F8FFF76BFFF0BCBDE85D
:10125000008C20F07F4780EA030023F07F4C07EBEF
:101260000C03A3F57C5300F00040A3F1FE0392F0C1
:10127000000F00F0B38095F0000F00F077802DE9AB
:1012800001494FEA11404FEA144621EA004800FBA9
:1012900006FC24EA064708FB06F607FB08F800FBF5
:1012A00007F718EB06484CEB164C4FEA124B18EBBD
:1012B00007484FEA15464CEB174022EA0B4E0BFB52
:1012C00006FC25EA06470EFB06F607FB0EFE0BFBA7
:1012D00007F71EEB064E4CEB164C4FF000061EEBCC
:1012E000074E4CEB174B18EB0B0840F1000018EBC6
:1012F0000E0B58EB000840F100008F1A4FF0000170
:101300003CBFC943661B14BFB5EB040C00213CBFB6
:10131000C943F61B4FEA17444EEA8E0E27EA0445EE
:101320004FEA1C4704FB07622CEA074C05FB07F752
:101330000CFB05F604FB0CFC16EB074642EB1742D0
:1013400016EB0C4642EB1C421BEB060658EB020266
:10135000414146EA9E0601D5BDE80189B6195241D0
:1013600041EB0101A3F10103BDE801894FEA1445F6
:101370004FEA114724EA054621EA074C05FB07F42A
:1013800006FB07F70CFB06F105FB0CFC11EB074114
:1013900044EB17444FEA124711EB0C4144EB1C4459
:1013A00022EA074C05FB07F206FB07F70CFB06F6E3
:1013B00005FB0CFC16EB074642EB174216EB0C46FE
:1013C00042EB1C456A1854F1000148BF7047B6193A
:1013D000524141EB0101A3F10103704795F0000F69
:1013E00037D04FEA11424FEA144721EA024624EA75
:1013F000074C02FB07F106FB07F70CFB06F402FBA8
:101400000CFC14EB074441EB17414FEA154714EB72
:101410000C4441EB1C4125EA074C02FB07F506FB97
:1014200007F70CFB06F602FB0CFC16EB074645EB38
:10143000174516EB0C4645EB1C42121951F1000101
:1014400048BF7047B619524141EB0101A3F10103B6
:1014500070474FEA14454FEA114724EA054621EA4E
:10146000074C05FB07F106FB07F70CFB06F24FF0F4
:10147000000605FB0CFC12EB074241EB174112EB97
:101480000C4251EB1C4148BF7047921841EB0101DF
:10149000A3F10103704700002DE9F843044600253D
:1014A000C4E900151746856098466A462946C56016
:1014B00000F0BAF808B1012600E000269DF800000F
:1014C000AD2802D00120BDE8F8836A4601212046FC
:1014D00000F0AAF800B1012006449DF800001D2884
:1014E00001D00220EFE76A460221204600F09CF876
:1014F00000B1012006449DF80000ED2801D0032032
:10150000E1E78DF800806A462821204600F0A6F821
:1015100000B1012006448DF800506A462D21204676
:1015200000F09CF800B101208519012F05D00A4870
:10153000022F03D0032F01D10CE0084820618DF861
:1015400000706A462C21204600F088F800B1012086
:101550002844B8E70248F1E7EE932338EE93A33727
:10156000EE93A338F0B587B004462E4D092303AAA5
:10157000082100F067F80746BDF80C009DF80E1032
:1015800040BA000401F0F00140EA0120001300908D
:10159000BDF80F009DF8111040BA000401F0F001F1
:1015A00040EA012000130190BDF812009DF81410CC
:1015B00040BA000401F0F00140EA0120001302905B
:1015C00000980003009800D5404200900198000365
:1015D000019800D54042019002980003029800D57E
:1015E00040420290009806F0AFFA0646284621696C
:1015F00006F0BEFA0546314606F0BAFA6060019878
:1016000006F0A2FA0146284606F0B2FAA060029857
:1016100006F09AFA0146284606F0AAFAE06007B0FA
:101620003846F0BDC3F51C413EB50124CDE9002488
:101630004FF0FF3302930A46006823463A2100F038
:1016400003FC3EBD3EB54FF0FF348DE81C000A465A
:10165000006801233A2100F0F7FB3EBD3EB50124AE
:10166000CDE900244FF0FF3302930A460068234679
:101670003A2100F011FD3EBDFEE70020704700203A
:101680007047000010B500220449054803F0F4FA41
:101690000449034803F0EAFA002010BDC40B0020FF
:1016A00000030020C407002010B50146034803F0E2
:1016B000DDFA024803F0BEFA002010BD000300204E
:1016C000094A10B5D2F8B822D2F814220AB1012082
:1016D00010BD0A460146044803F0CEFABDE81040AA
:1016E000014803F027BB00000003002070470220E0
:1016F00000F052B872B6FEE710B590F82110002441
:10170000022903D00421816301243DE001680A68B5
:1017100022F00E020A6001680A6822F001020A60E3
:101720001A4A0168914201D1012121E0174A14327D
:10173000914201D110211BE0144A2832914201D17B
:10174000891515E0114A3C32914201D189140FE00C
:101750000E4A5032914202D14FF4803108E00B4AD8
:101760006432914202D14FF4801101E04FF0807158
:10177000064A083A5160012180F82110002180F8C2
:101780002010416B01B18847204610BD080002407F
:1017900090F8210070477047044910B50A6802426A
:1017A00002D00860FFF7F7FF10BD000014040140ED
:1017B0002DE9F84FDFF8B8910024A9F1040B234676
:1017C0000F2709F1040AABF1040EC9E00125A54079
:1017D0002A40AA427DD1674ED1F804C0ACEB06087E
:1017E000B44532D014DCBCF1030F3AD009DCBCF1B3
:1017F000000F2AD0BCF1010F1CD0BCF1020F31D177
:101800001DE0BCF1110F17D0BCF1120F2AD119E065
:10181000B8F5881F19D006DCB8F5803F15D0B8F5AB
:10182000801F1FD111E0B8F5001F0ED0B8F5041FBE
:1018300018D10AE0CB6815E0CB681B1D12E0CB681D
:1018400008330FE0CB680C330CE08B682BB1012B15
:101850004FF0080303D0456104E0042302E0056172
:1018600000E00023FF2A01D8064601E000F104064B
:101870004FEA840501D9A5F12005D6F8008007FAC2
:1018800005FC28EA0C0803FA05F548EA0508C6F83D
:1018900000804D68ED0062D5374DAE6946F0010617
:1018A000AE61AD6924F0030605F001050095334DE6
:1018B00006EB050CDCF80850A607360F07FA06F809
:1018C00025EA0805DFF8B880404503D14FF000084D
:1018D00017E044E0DFF8AC80404502D14FF001084A
:1018E0000FE0DFF8A480404502D14FF0020808E085
:1018F000DFF89880404502D14FF0030801E04FF037
:10190000040808FA06F848EA0508CCF808804D688B
:10191000D9F80060ED024D4601D5164300E096432C
:101920002E604D68DAF80060AD02554601D51643C9
:1019300000E096432E604D68DBF80060AD035D4625
:1019400001D5164300E096432E604D68DEF8006036
:10195000ED03754601D5164300E096432E60641CE6
:101960000D682A46E5407FF431AFBDE8F88F0000EE
:101970000804014000001110001002400000014066
:1019800000080140000C014000100140001401401B
:10199000C26821EA02030A4043EA0241016170473A
:1019A0000AB1016170470904FBE700000148806843
:1019B0007047000014000020704770472DE9F04187
:1019C000016804464A694E6890F83E000025D743F6
:1019D000FA050BD4F243D20508D46FF480720125C6
:1019E0004A6121680A6842F400420A60B90508D4D5
:1019F000F143C90505D422686FF4007145F0020572
:101A00005161790525D4F143C90522D4638D94F839
:101A10003D10226B202808D13BB9212910D029295B
:101A20000ED0282901D1212A0AD022686FF48061C2
:101A3000516145F00405102806D0402804D008E084
:101A4000204602F08DFA04E02068016841F400713C
:101A50000160380508D4F043C00505D421686FF44F
:101A6000006045F008054861002D07D0206C284330
:101A700020642046BDE8F04101F0F8BDBDE8F081EA
:101A80002DE9F047026800215368C66A90F83E408D
:101A900090F83D50102C12D0402C10D0046C002C2B
:101AA0007DD05469E443A6077AD4DE43B60577D4E3
:101AB000036C03B19169BDE8F04702F02DBA976954
:101AC00051694FF42A0CC9435FEAC1784FF02A49A3
:101AD00004D066452AD04E4528D010E0DE43B60536
:101AE0000DD4C16A614501D1012103E0C16A4945B4
:101AF00001D10821C162BDE8F04702F0A1B80E078C
:101B000016D4DE43B60513D4416CC9B21161416BE2
:101B100009B1896A29B9816B002907D0896A00292E
:101B200004D00068416841F400614160BDE8F0877D
:101B30008E0706D4DE43B60503D4BDE8F04701F0B6
:101B4000D3BFFE43526876074FEA02521DD4002AE3
:101B5000ECDB0A0608D4DA43520505D4490705D55B
:101B6000BDE8F04701F064BF4907DFD4D9438905D8
:101B7000DCD4212D05D0402CD8D1BDE8F04702F0AF
:101B8000A5B8BDE8F04701F011BF002ACEDB4A0638
:101B90000BD4DA43520508D4490708D501E00DE01B
:101BA0000EE0BDE8F04701F08DBE4907BED4D94331
:101BB0008905BBD4BDE8F04701F01BBE916970E711
:101BC000E10606D4D943890503D4BDE8F04702F005
:101BD0000FBA2821212D27D0292D25D0650655D4CF
:101BE000DD436D0552D4640752D590F83D30448DE5
:101BF000002C9BD01269446A2270426A521C4262D5
:101C0000428D521E4285428D002A8FD12A2B8DD1C2
:101C10000268536823F4806353602222026380F8D1
:101C20003D1000F00FFB81E7250623D4DD436D0551
:101C300020D4640720D590F83D30448D002CF2D09C
:101C4000446A24781461426A521C4262428D521ED8
:101C50004285428D002AE6D1292BE4D102685368DF
:101C600023F4806353602122026380F83D1000F06A
:101C7000EAFA5BE76107D6D4D9438905D3D4418D0D
:101C80000029D0D0416A097811610AE06107CAD4FD
:101C9000D9438905C7D4418D0029C4D01169426A4E
:101CA0001170416A491C4162418D491E41853DE7E1
:101CB0007047000070B5040025D094F83D00002561
:101CC00020B984F83C50204600F07EFA242084F8A5
:101CD0003D002068016821F0010101602068016871
:101CE00041F4004101602068016821F40041016075
:101CF00001F056F94D4A6168914201D84C4900E023
:101D00004C49884201D2012070BD4B492368B0FB89
:101D1000F1F15E6826F03F060E435E606368934211
:101D200006D94FF4967359434FF47A73B1FBF3F12C
:101D30002368491C1E6A26F03F0631431962616818
:101D4000914210D84900401EB0FBF1F2521CC2F380
:101D50000B02042A01D2042022E0B0FBF1F0401C67
:101D6000C0F30B001CE0A268F2B301EBC10303EB6C
:101D70000116431EB3FBF6F35B1C43F480431B05C3
:101D800049D092B301EBC10202EB0111401EB0FB3E
:101D9000F1F0401CC0F30B0040F4804040F40040E0
:101DA0002168CA694CF6FF739A431043C861D4E9AD
:101DB000071001432068026822F0C002114301604D
:101DC000D4E9030101432068826848F2FF339A4353
:101DD00011438160D4E9050108432168CA6822F0F3
:101DE000FF021043C86001E00EE016E020680168C1
:101DF00041F0010101602564202084F83D00256345
:101E000084F83E50002070BD01EB4106431EB3FB39
:101E1000F6F35B1CB3E70120C2E701EB4101401E72
:101E2000B0FBF1F0401CC0F30B00B7E7A086010047
:101E300080841E0000093D0040420F00704770473B
:101E400070477047704700002DE9FF4F83B00025B1
:101E5000DDE910799A4693460446DDF848800095FE
:101E6000FFF7A4FD064694F83D0020287CD11923F5
:101E7000012285492046009602F094F90028F5D108
:101E800094F83C0001286FD0012084F83C002068C1
:101E90000168C90703D1016841F0010101602068B0
:101EA000016821F400610160222084F83D00402097
:101EB00084F83E0025646762A4F82A90608D20852E
:101EC0007248E062CDE9008653465A46204604999E
:101ED00001F050FF00287DD1208DDFF8B49120273C
:101EE00068B1012814D00228206801681ED041F48E
:101EF000806101602068416980690090B6E02068D7
:101F0000416981690091016841F400710160ADE0AF
:101F10002068016821F48061016072B6206841691F
:101F200081690091016841F400710AE041F40061A7
:101F3000016072B62068416981690091016821F4ED
:101F40008061016062B691E0032868D801280CD056
:101F5000022843464FF000024946204600960FD023
:101F600002F020F9B0BB10E08BE03246414620463B
:101F700002F0BEF970BB20680069616A08706CE00D
:101F800002F010F930BB72B634E02068016821F429
:101F90008061016072B620680069616A0870606AD9
:101FA000401C6062208D401E2085608D401E608533
:101FB000384846F2A8110068B0FBF1F0C0EBC00051
:101FC00000EB80000090401E009008D0206840691F
:101FD000C04300E029E040070CD50098F3E744F83F
:101FE000305F6773A573206940F02000206162B6FE
:101FF00025731AE02068016841F4007101602068CF
:102000000069616A0870606A401C6062218D491E27
:102010002185618D491E618562B621681BE03246CB
:102020004146204602F064F918B1012007B0BDE82E
:10203000F08F20680069616A0870606A401C606205
:10204000218D491E2185618D491E618521684A695E
:10205000D24352070AD409690170606A401C606269
:10206000208D401E2085608D401E6085208D0028BB
:102070007FF46AAF84F83D7084F83E5084F83C5099
:10208000D4E70220D2E70000020010000000FFFFAA
:1020900004000100200000202DE9FF4F83B09A4684
:1020A000DDE9119793460446DDF84080FFF77EFC9A
:1020B000054694F83D0020287FD11923012240498C
:1020C0002046009502F06EF8002876D194F83C0086
:1020D000012872D0012084F83C0020680168C907FB
:1020E00003D1016841F0010101602068016821F419
:1020F00000610160212084F83D00402084F83E000A
:1021000000262664C4F82480A4F82A90608D2085D7
:102110002C48E062CDE9007553465A4620460499A2
:1021200001F0A6FE70B930E02A463946204602F09A
:1021300017F958B1206C042804D12068016841F4D3
:1021400000710160012007B0BDE8F08F606A21686E
:1021500000780861606A401C6062218D491E89B266
:102160002185628D521E628522685369DB435B07BD
:102170000BD469B100781061606A401C6062208DE8
:10218000401E2085608D401E6085208D0028CBD1AB
:102190002A463946204601F0D9FF0028CAD154F812
:1021A0003D0B016841F400710160202004F81E0914
:1021B000E67766770020C6E7FFE70220C3E7000066
:1021C000020010000000FFFF10B586B00021009152
:1021D0000191029103910068174988422AD1174C56
:1021E000A06940F00800A061A069694600F00800FD
:1021F0000490C0200090122001900320039010480A
:10220000FFF7D6FAE06940F40010E061E0690022CF
:1022100000F40010049005211F2000F0A7F81F20F3
:1022200000F096F800220521202000F09FF82020E1
:1022300000F08EF806B010BD0054004000100240BF
:10224000000C0140704770470248816802781144D1
:102250008160704714000020074810B5016841F004
:1022600010010160032000F0A1F80F2000F006F833
:1022700000F04AF8002010BD0020024030B50546AD
:102280001C4887B0816941F400618161806906A9B9
:1022900000F40060009001A800F062FE00F090FEE3
:1022A0001549164AB0FBF1F11548491E026041601C
:1022B00040F2E7320021C0E903218160816101F031
:1022C00047F8040012D10E4801F070F804000DD157
:1022D000192000F03DF8102D07D2002229461920C0
:1022E00000F044F80748056000E0012407B02046EC
:1022F00030BD00000010024040420F00002C0140A1
:10230000B8020020180000200F4808B5816941F08C
:1023100001018161816901F001010091C16941F010
:102320008051C161C069002200F0805000900F21EF
:10233000901E00F01BF80548416821F0E06141F073
:102340000071416008BD0000001002400000014023
:10235000002809DB00F01F020121914040098000A4
:1023600000F1E020C0F8001170470000F0B40E4BFF
:102370001B680C46C3F30223C3F10705042D00D9E3
:102380000425191D072901D2002300E0DB1E0126C8
:1023900006FA05F1491E214099409E40761E1640DE
:1023A0003143F0BC03F0F6BE0CED00E0064900F04E
:1023B000070208684FF6FF03184040EA0220034A6C
:1023C00010430860704700000CED00E00000FA05C3
:1023D00010B50C0607D501F0070101EB810100EBF8
:1023E000C100283005E001EB810100EBC10000F5E0
:1023F000B47099B232B1012202730181190C41818A
:10240000002010BD00220273C180F9E7704701EB84
:10241000810200EBC202D0F8EC02D26B02F039BEAE
:1024200001EB810200EBC202D0F8EC02D2F87C2171
:1024300002F092BE70B504460B0601F0070000EBF7
:10244000800104EBC1014FF001024FF0000503D5FC
:1024500081F82920283103E081F8695101F5B47130
:10246000087094F8A802012808D084F8A8222068EF
:1024700003F0D4FA84F8A852002070BD022070BD89
:1024800070B5044601F00F006268904201D9012046
:1024900070BD0B0601F0070000EB800104EBC101E9
:1024A0004FF001024FF0000503D581F829202831B3
:1024B00003E081F8695101F5B4718D70087094F8EA
:1024C000A802012808D084F8A822206803F043FB62
:1024D00084F8A852002070BD022070BD2DE9F05F85
:1024E00004685FEA424C0B788D69B4F850C04FF035
:1024F00000064BF68F7948F2800A48F68F7B48F247
:10250000C00E4FF480672AD54FF0020808EBC308CD
:10251000C44407EB4C07E45BC4F30904A54203D3AE
:102520002D1B8D6101D00BE08E61066836F82350BB
:1025300005EA090585F4005545EA0A0526F8235001
:10254000520609D50D78036833F8252002EA0B02FC
:1025500042EA0E0223F8252084B30A8929E04FF0CD
:10256000060808EBC308C44407EB4C07E45BC4F35C
:102570000904A54203D32D1B8D6101D00BE08E61B0
:10258000066836F8235005EA090585F4005545EA42
:102590000A0526F82350520609D40B78056835F849
:1025A000232002EA0B0242EA0E0225F823202CB176
:1025B0004A8949690068234603F0A6FD2046BDE824
:1025C000F09F2DE9F05F054600680C465FEA426C1B
:1025D00016468B692278B0F850C048F68F774CF2D7
:1025E00080094FF4004B4FF6FF7E4FF4806A4FF0A6
:1025F000000172D54FF0020808EBC208E0440AEB74
:10260000480C30F80C00C0F30900834211D91B1AA2
:10261000A3610FD0730407D52E6836F822303B40F3
:1026200043EA090326F8223094F82420012A47D0EF
:1026300052E1A161607810B1012813D01AE0286836
:10264000B0F85030184400EB0210B0F80424C2F384
:102650000902A0F80424B0F8042442F40042A0F8CF
:10266000042407E02868B0F85030184400EB02104A
:10267000A0F804146278286812B1012A11D018E079
:10268000B0F850100844217800EB0110B0F80C1499
:10269000C1F30901A0F80C14B0F80C1441F4004186
:1026A00005E0B0F850201044227800EB0210A0F8AA
:1026B0000C1421782846FFF7AAFE700472D40BE1AF
:1026C000626902446261E2690244E2612369226A4A
:1026D0009A4203D31846111A04E03EE084F824100D
:1026E0000AB110462162617811B1012929D031E087
:1026F0002968B1F850201144227801EB0211B1F899
:102700000424C2F30902A1F8042401F204413E2882
:1027100007D94209C30600D1521E0B884BEA822218
:1027200007E048B14208C30700D0521C0B880EEAEC
:10273000822213430B800DE00A8842F400420A8093
:1027400008E02968B1F850201144227801EB021109
:10275000A1F8040483B22289BAE04FF0060808EB1E
:10276000C208E0440AEB480C30F80C00C0F3090042
:10277000834211D31B1AA3610FD0730407D42E68B0
:1027800036F822303B4043EA090326F8223094F819
:102790002420012A51D09FE0A161607818B101285E
:1027A00014D01BE03FE02868B0F85030184400EB2C
:1027B0000210B0F80424C2F30902A0F80424B0F80F
:1027C000042442F40042A0F8042407E02868B0F88A
:1027D0005030184400EB0210A0F804146278286806
:1027E00012B1012A11D018E0B0F850100844217835
:1027F00000EB0110B0F80C14C1F30901A0F80C149F
:10280000B0F80C1441F4004105E0B0F85020104439
:10281000227800EB0210A0F80C1421782846FFF76C
:10282000F6FD700458D42278296831F82200384027
:1028300040EA090021F822004EE062690244626128
:10284000E2690244E2612369226A9A4203D318468C
:10285000111A216204E00AB11046216284F82410A2
:102860006278296812B1012A28D02FE0B1F85020EF
:102870001144227801EB0211B1F80C24C2F30902D1
:10288000A1F80C2401F20C413E2807D94209C306E5
:1028900000D1521E0B884BEA822207E048B1420861
:1028A000C30700D0521C0B880EEA822213430B8010
:1028B0000CE00A8842F400420A8007E0B1F8502098
:1028C0001144227801EB0211A1F80C04628983B251
:1028D0006169286803F036FC2278296831F8220003
:1028E00048F6BF73184080F0300048F28003184368
:1028F00021F822000020BDE8F09F01F0070101EB64
:10290000810100EBC100D0F8840170472DE9F0414E
:1029100004460F0601F0070000EB800104EBC10143
:102920004FF001064FF0000503D581F829602831EA
:1029300003E081F8695101F5B471022B08700A6156
:10294000CB7000D10D7194F8A802012809D084F849
:10295000A862206802F012FF284684F8A852BDE859
:10296000F0810220FBE710B501F0070404EB8401BD
:1029700000EBC101C1E95F230022C1F8842181F885
:10298000692181F86841006801F5B47103F038F9F4
:10299000002010BD70B504460D4601F007006168C7
:1029A000884201D9012070BD29064FF000064FF082
:1029B000010207D500EB800104EBC10181F8292059
:1029C000283107E005EB850104EBC10181F869615D
:1029D00001F5B4718A70087094F8A802012807D034
:1029E00084F8A822206803F0F2F8680702D006E015
:1029F000022070BD04F52C71206803F0AAF884F859
:102A0000A862002070BD10B501F0070404EB84013A
:102A100000EBC101C1E90F23012281F84C208B6436
:102A200000234B6481F8292001F8284F006803F047
:102A3000E7F8002010BD00001FB50446006803F051
:102A40005FFB010403D5204601F052FD1FBD410587
:102A50000DD5206830F8441F21F4806101802046A4
:102A600000F010F90021204600F027F91FBD4104B5
:102A700005D5206830F8441F21F4804174E08104BA
:102A800005D5206830F8441F21F400516CE0C104E2
:102A900014D5206830F8401F21F00401018020681F
:102AA00030F8401F21F008010180204600F0FDF8B9
:102AB000206830F8441F21F4805155E0010540D5CD
:102AC000D4F800200020694632F8203021F8103078
:102AD000401CC0B20828F7D332F8400F40F0010084
:102AE0001080206830F8402F22F001020280206818
:102AF000B0F844205205FBD530F8442F22F4806210
:102B000002800020236831F8102023F82020401C88
:102B1000C0B20828F6D3206830F8401F41F0080101
:102B20000180206830F8441F21F400610180206892
:102B300030F8401F41F004010180204600F0F2F817
:102B40001FBD810509D5206830F8441F21F40071AC
:102B50000180204600F0ADF81FBDC005FCD52068FF
:102B600030F8441F21F4807101801FBD2DE9F04130
:102B700086B0040004D094F8A902002520B108E032
:102B8000012006B0BDE8F08184F8A852204600F08C
:102B90005BF8032084F8A902206802F0D3FF04F157
:102BA0001001142288466846FDF785FC94E80F0062
:102BB00002F032FF0227D0BB0021206803F0BAFAEE
:102BC000002001260EE000BF00EB800104EBC101F4
:102BD00081F8296001F8280F401CCD700D614D610E
:102BE000C0B28D6161688142EED8002012E000BF62
:102BF00000EB800104EBC10181F8695181F86801A3
:102C000081F86B51C1F87851C1F87C51401CC0B2B9
:102C1000C1F8805161688142EAD814224146684671
:102C2000FDF749FC94E80F0002F083FF10B184F82F
:102C3000A972A5E784F8245084F8A962206802F0FC
:102C400076FF00209DE7000008B500680B49884228
:102C500012D10B48C16941F40001C161C069002271
:102C600000F40000009005211420FFF77FFBBDE871
:102C700008401420FFF76CBB08BD0000005C00405A
:102C80000010024070B5044680680125022801D07A
:102C9000FEF730FD2946D4F8EC0202F046FBD4F8EA
:102CA000EC02BDE8704002F002BBD0F8EC0202F08A
:102CB00026BBD0F8EC0202F02CBB10B5044690F80D
:102CC000A80201280BD0012084F8A80284F824105F
:102CD000206803F031FA002084F8A80210BD022019
:102CE00010BDD0F8EC2200F52C71104602F029BB83
:102CF00010B5044690F8A802012810D0012084F8ED
:102D0000A802206803F0EDF901212046FFF77EFBC1
:102D1000206802F00AFF002084F8A80210BD0220FB
:102D200010BD000010B50446D0F8EC0202F048FBDC
:102D3000A069002804D00348016841F00601016041
:102D400010BD000010ED00E02DE9F84305460078C5
:102D5000354CC00754D0E0690026C00008D4E069B3
:102D600040F08050E061E069012600F08050009062
:102D70002E480168C90512D40168804641F480716B
:102D80000160FEF713FE074605E000BFFEF70EFEEA
:102D9000C01B642823D8D8F80000C005F6D5206AE7
:102DA00010F4407021D0A98801F4407181421CD0F8
:102DB000206A1F49012220F440700A6000220A6044
:102DC0002062C00711D0FEF7F1FD074641F28838B6
:102DD00008E000BFFEF7EAFDC11B414502D9032010
:102DE000BDE8F883206A8007F4D5206A696820F47A
:102DF0004070084320621EB1E06920F08050E0611D
:102E00002878800705D56068A96820F44040084309
:102E100060602878C00605D56068E96820F4800005
:102E2000084360600020DBE70010024000700040B3
:102E3000400442422DE9F0470F46050061D0434E61
:102E4000306800F00700B84209D2306820F007006F
:102E500038433060306800F00700B84251D128682C
:102E60003B4C810712D5400703D5606840F4E06011
:102E700060602878000703D5606840F460506060A7
:102E80006068A96820F0F000084360602878C007F7
:102E900028D06868012810D02168022810D089073E
:102EA00000292EDA616821F0030101436160FEF719
:102EB0007DFD804641F288390DE021688903EFE706
:102EC0008901EDE7FEF772FDA0EB0801494502D943
:102ED0000320BDE8F0876068696800F00C00B0EB83
:102EE000810FEFD1306800F00700B8420BD930688D
:102EF00020F0070038433060306800F00700B84227
:102F000001D00120E5E72878400705D56068E96829
:102F100020F4E060084360602878000706D5606808
:102F2000296920F4605040EAC100606000F058F860
:102F30006168084AC1F30311515CC8400649086042
:102F400006480068FFF79AF90020C2E70020024017
:102F500000100240AE7D0008200000201800002074
:102F60000F2202600C4A536803F003034360536866
:102F700003F0F0038360536803F4E063C3605268B6
:102F80004FF4E06303EAD20202610448006800F0F3
:102F90000700086070470000001002400020024057
:102FA0000448054900684968044AC1F30221515C9C
:102FB000C84070472000002000100240BE7D00087D
:102FC0000448054900684968044AC1F3C221515CBC
:102FD000C84070472000002000100240BE7D00085D
:102FE0000E4A51680E4801F00C03042B11D0082B37
:102FF0000FD10C48C1F38343C903C05C0AD55168A3
:10300000084AC1F34041921E515C054A5043B0FB4F
:10301000F1F0704704494843704700000010024037
:1030200000127A009E7D000800093D002DE9F84F4E
:10303000040070D02078C04DC00749D06868C0F344
:103040008100012807D06868C0F38100022809D1F7
:103050006868C00306D52868800339D560680028F1
:10306000E7D035E06068B0F5803F0BD010B1B0F527
:10307000A02F11D0286820F480302860286820F420
:10308000802002E0286840F480302860606890B1B9
:10309000FEF78CFC06460AE0286840F48020286091
:1030A000F0E700BFFEF782FC801B642873D8286815
:1030B0008003F7D50CE0FEF779FC064605E000BF7B
:1030C000FEF774FC801B6428F0D828688003F7D4CE
:1030D00020789A4E80074FF001094FF0000839D54B
:1030E000686810F00C0F07D06868C0F381000228F0
:1030F00009D16868C00306D42868800714D5206900
:10310000012808D110E02069B0B1C6F80090FEF7A0
:103110004DFC074605E00AE1FEF748FCC01B02280B
:10312000C4D828688007F7D52868616920F0F800BE
:1031300040EAC10028600DE0C6F80080FEF736FCCA
:10314000074604E0FEF732FCC01B022823D828689B
:103150008007F7D4207800072CD57948A169D9B128
:10316000C0F80090FEF722FC074604E0FEF71EFCC4
:10317000C01B02280FD8686A8007F7D571484FF442
:10318000FA510068B0FBF1F0009000BF0098411EBA
:103190000091FAD20EE080E0C0F80080FEF706FC55
:1031A000074604E0FEF702FCC01B022875D8686AD7
:1031B0008007F7D42078400760D5E8690027C00071
:1031C00008D4E86940F08050E861E869012700F020
:1031D000805000905C480168C90513D4016883469B
:1031E00041F480710160FEF7E1FB824606E000BF1A
:1031F000FEF7DCFBA0EB0A0064284ED8DBF80000E9
:10320000C005F5D5E06801280AD008B1052813D01B
:10321000286A20F001002862286A20F0040002E0F9
:10322000286A40F001002862E06841F2883B98B1CA
:10323000FEF7BCFB82460BE0286A40F004002862DF
:10324000EEE700BFFEF7B2FBA0EB0A0159455AD8E2
:10325000286A8007F6D50CE0FEF7A8FB824605E059
:10326000FEF7A4FBA0EB0A0159454CD8286A800759
:10327000F6D41FB1E86920F08050E861E06988B3B6
:103280006968C1F38101022944D00228C6F8608030
:1032900004D0FEF78BFB044638E034E0FEF786FBF3
:1032A000074604E0FEF782FBC01B02282BD82868E3
:1032B0008001F7D4206AB0F5803F05D16868A16825
:1032C00020F4003008436860D4E9080108436968C5
:1032D00021F4741108436860C6F86090FEF766FB3D
:1032E000044606E025E000BFFEF760FB001B022855
:1032F00009D828688001F7D51BE000BFFEF756FB10
:10330000001B022802D90320BDE8F88F286880013D
:10331000F4D40EE00128F7D06868226A00F4803106
:10332000914204D1616A00F47010884201D00120FA
:10333000EAE70020E8E700000010024000004242F7
:103340008004424220000020007000407047704717
:1033500010B5040003D094F83D0010B107E001203F
:1033600010BD002084F83C00204600F01EF802202A
:1033700084F83D00211D206801F0EEFA012084F858
:10338000460084F83E0084F83F0084F8400084F84A
:10339000410084F8420084F8430084F8440084F833
:1033A000450084F83D00002010BD704790F83D10A6
:1033B000012901D001207047022180F83D100168E9
:1033C000CA6842F00102CA6000680B49884208D00E
:1033D000B0F1804F05D00949884202D0084988429F
:1033E00004D1816801F00701062903D0016841F08A
:1033F0000101016000207047002C014000040040E2
:1034000000080040704770B50446006801694FF03D
:103410000005C943890715D4C168C943890711D478
:10342000E91E01610120207720688069800720461D
:1034300002D0FFF7E7FF04E000F098F8204600F024
:1034400096F8257720680169C943490717D4C168F0
:10345000C943490713D46FF00401016102202077AA
:103460002068806910F4407F204602D0FFF7CAFF31
:1034700004E000F07BF8204600F079F8257720681A
:103480000169C943090716D4C168C943090712D4A1
:103490006FF008010161042020772068C06980076F
:1034A000204602D0FFF7AEFF04E000F05FF82046B0
:1034B00000F05DF8257720680169C943C90617D473
:1034C000C168C943C90613D46FF010010161082017
:1034D00020772068C06910F4407F204602D0FFF7B3
:1034E00091FF04E000F042F8204600F040F8257714
:1034F00020680169C943C90708D1C168C943C90720
:1035000004D1891E0161204600F032F8206801696B
:10351000C943090609D4C168C943090605D46FF037
:10352000800101612046FFF711FF20680169C9434E
:10353000490609D4C168C943490605D46FF0400162
:103540000161204600F01EF820680169C943890620
:103550000BD4C168C943890607D46FF0200101610B
:103560002046BDE87040FFF7F2BE70BD704770475F
:1035700000680349884201D1FEF766BE704700002B
:10358000002C01407047FEE70148FEF717BA000023
:10359000100200200148FEF773BA0000100200205C
:1035A00038B5406A002190F83D202B4B46F2A81414
:1035B0001B68B3FBF4F3C3EBC30303EB8303009378
:1035C0003BB15B1E009303681B689B0505D5009B00
:1035D000F6E7036C43F020030364436B03B1996285
:1035E000836B03B1996203681C6824F480641C60D7
:1035F0004185436B03B15963836B03B1596303681E
:103600001C6824F001041C6090F83D402023602CCD
:103610000BD0282434EA02020FD080F83D3080F825
:103620003E1000BFFEF744FB38BD80F83D3080F807
:103630003E100164FEF7C0F938BD0268136843F01C
:10364000010313600268136843F48063136001632D
:1036500080F83D40E6E70000200000200068416956
:10366000C943090601D400210161704770B50446C1
:1036700090F83D0094F83E10102901D0402906D161
:10368000222804D121680A6822F400620A602821F5
:1036900031EA00024FF000054FF0200626D02168E5
:1036A0004968090505D4602803D084F83D6084F892
:1036B0003E50256320684168090537D5416821F4EB
:1036C00000614160606B90F821203C49012A11D0D3
:1036D0004163606BFEF710F838B32068016821F091
:1036E0000101016084F83D60606B1CE0256384F893
:1036F0003D10DFE7A06B4163A06BFDF7FDFFA0B1BC
:1037000020684169C943490605D40069616A0870A7
:10371000606A401C60622068016821F0010101605C
:1037200084F83D60A06B416B884710E094F83D1031
:10373000602910D04169C943490605D40069616A0E
:103740000870606A401C60622046FEF7B1FA206C87
:10375000C1071CD115E084F83D6025644169C94367
:10376000490605D40069616A0870606A401C60629D
:103770002068016821F0010101602046FEF71CF974
:10378000E5E7810703D4410701D4000704D5206889
:10379000416821F4E061416094F83D00216C4907E3
:1037A0000BD5282809D10648E062256384F83D60DE
:1037B00084F83E502046FEF741FB70BDA13500085D
:1037C0000000FFFF01684A69D24352050FD46FF42D
:1037D00080624A61002140F8301F202242738173C9
:1037E000026942F004020261017301207047002067
:1037F000704710B5C26A438D0168042B06D0438D13
:10380000032B08D0438D022B1DD012E04A6822F40E
:1038100080624A600CE04B6823F480634B60042AAA
:1038200006D0022A04D001680A6822F480620A6085
:1038300001680969426A1170416A491C4162418DFF
:10384000491E418510BD012A30D0102A2ED0042AED
:1038500030D0022A2ED00A6842F400720A60016851
:103860000969426A1170416A491C4162428D521EC7
:103870004285026812690A70416A491C4162418DA1
:10388000491E418501684A6822F440724A6020213D
:1038900080F83D1090F83E200021402A80F83E102C
:1038A0000CD012210163FEF7CAFA10BD0A6822F497
:1038B0008062D3E70A6842F48062CFE70163FEF7D3
:1038C000C0FA10BD38B590F83D1022290FD1418DB6
:1038D00003290DD901680969426A1170416A491CBE
:1038E0004162418D491E4185418D032906D038BD75
:1038F000C26A022A02D0012906D029B100684168B3
:1039000021F48061416038BD274946F2A8130022A6
:103910000968B1FBF3F101EB8101009101682023FB
:10392000009C641E009422D00C68A405F8D40C6896
:1039300024F480640C6001684C6824F4E0644C60FA
:1039400001680969446A2170416A491C4162418DDC
:10395000491E418580F83D3090F83E1080F83E20A9
:1039600040291DD012210163FEF769FA38BD046CAD
:1039700044F0200404644C6824F4E0644C60016862
:103980000969446A2170416A491C4162418D491E9E
:10399000418580F83D3080F83E20FEF789F938BD3A
:1039A0000263FEF74EFA38BD2000002010B5C26A4F
:1039B00090F83D1021290BD1418D51B1416A026827
:1039C00009781161416A491C4162418D491E418556
:1039D00010BD20230021082A13D0202A11D012F56F
:1039E000803F0ED00268546824F4E06454601122D1
:1039F000026380F83E1080F83D3000BFFEF720FAE9
:103A000010BD0268546824F4E064546002681468CD
:103A100044F400741460016380F83D3090F83E2057
:103A200080F83E10402AE9D1FEF70CFA10BD0000E4
:103A300010B590F83D1090F83E30C26A048DB4B1D4
:103A4000212903D0402B11D122290FD1418DE1B37F
:103A500090F83E10402942D0416A0268097811610D
:103A6000416A491C4162418D491E418510BD212991
:103A7000E8D120230021082A13D0202A11D012F5E2
:103A8000803F0ED00268546824F4E0645460112230
:103A9000026380F83E1080F83D3000BFFEF7D0F999
:103AA00010BD0268546824F4E0645460026814682D
:103AB00044F400741460016380F83D3090F83E20B7
:103AC00080F83E10402AE9D100E002E0FEF7BAF9A2
:103AD00010BD0068416821F48061416010BDBDE8FF
:103AE000104000F0F3B8000078B590F83E50C26A7C
:103AF000046B90F83D6000230168222E73D1066D9F
:103B00000EB9402D6FD0056D1DB90569B5F5404F53
:103B10001BD0458D95B3468D484D012E20D0448D48
:103B2000022C4DD00C6844F480640C6001684C6831
:103B3000240579D5AA4273D0012A71D0082A6FD002
:103B4000102A6DD0202A6BD06EE04A698A690092F3
:103B50000A6842F480720A60016D491C016578BDF3
:103B6000AA4214D10A6822F480620A6001684A6895
:103B7000120504D50A6822F4806217E0FFE74A695B
:103B80008A6900920A6842F400720A6050E0082ACA
:103B900010D0202A0ED0122C0AD0042A03D0022AD8
:103BA00001D0102AE6D10A6842F480620A603BE044
:103BB000012ADFD00A6822F480620A600168DEE729
:103BC000042A11D0022A0FD0102A0DD00C6844F418
:103BD00000640C6001684C698C6900940C6824F4E2
:103BE00080640C6008E025E00C6844F480640C609C
:103BF00001684C698969009101684C68240517D5F2
:103C0000AA4207D0012A05D0082A03D0102A01D0E1
:103C1000202A0DD14A6842F480524A6008E0FFE74A
:103C20004A6842F480524A6001684A698969009191
:103C3000036578BD48698869009078BD0000FFFF82
:103C400090F83E10402910D00169B1F5804F19D08D
:103C5000016DA9B3016D012910D1416C5FF0F10232
:103C600001F4407142EAD11106E0016D0029416C76
:103C700005D0C9B241F0010100680161704701F04F
:103C8000FE01F9E790F83D102129416C09D0C9B235
:103C900041F0010102681161416B29B1896A49B99A
:103CA00002E001F0FE01F5E7816B0029E6D0896AA8
:103CB0000029E3D00068416841F400614160704729
:103CC000FFE7416CF02201F44071CBE710B590F8AA
:103CD0003D10026D4AB1026D012A14D0026D022A14
:103CE00016D0BDE81040FFF7B9BCC16C0129816C4A
:103CF00002D0C1F3072108E00268C9B21161016D69
:103D0000891C016510BD816CC9B20268116123E094
:103D100022291CD0428D0AB1212920D0428D002AAF
:103D2000F0D12129EED101684A6822F4E0624A60AC
:103D300001680A6842F400720A60002101632022CF
:103D400080F83D2080F83E10FEF77CF810BD016839
:103D50000A6842F480720A60016D491CD1E7416A29
:103D6000026809781161416A491C4162418D491E0E
:103D7000418510BD2DE9F84F0446006889460B9D2A
:103D800001689846174641F4806101602068016827
:103D900041F48071016000954FF0011B00225946EB
:103DA00020460A9B00F0FEF94FF4007A40B12068EB
:103DB0000068C00501D5C4F840A00320BDE8F88F15
:103DC000216809F0FE0008612B46284920460A9A1E
:103DD00000F030FAF0BB20684169806900902A4603
:103DE00020460A9900F0BCFA40B1206C04283AD170
:103DF0002068016841F40071016034E0FEB2B8F15E
:103E0000010F09D02168380A08612A4620460A991C
:103E100000F0A6FA0028E8D1206806612A4620466C
:103E20000A9900F09DFA0028DFD12068016841F46A
:103E30008071016000950022594620460A9B00F0DF
:103E4000B1F90028B3D1216809F0FF0040F001006A
:103E5000086100E007E02B46044920460A9A00F07A
:103E6000E9F90028AAD00120A8E70000020001001B
:103E70002DE9F843044600680D46DDE9089701681E
:103E80009846164641F4807101604B4600224FF07F
:103E900001112046009700F085F948B120680068BC
:103EA000C00502D54FF4007020640320BDE8F883FC
:103EB000216805F0FE0008613B464A461549204648
:103EC00000F0B8F988B920684169806900903A46E5
:103ED0004946204600F044FA48B1206C042804D139
:103EE0002068016841F4007101600120DEE7F5B24D
:103EF000B8F1010F09D02168300A08613A464946F5
:103F0000204600F02DFA0028E7D120680561002046
:103F1000CCE700000200010038B50C4690F83D20C7
:103F200000212825954302680B4605D05169916907
:103F3000009180F83C3038BD556825F480655560A7
:103F4000E243540700D50121120601D5828900E021
:103F5000028B80F83C3092B2FDF72FFD38BD000097
:103F60002DE9F04190F83D300446C26A0021202638
:103F70001E4F00686FF48065082A01D0202A01D105
:103F8000282B04D0212B17D04561BDE8F081E762D2
:103F9000426822F4E062426020684561206802685D
:103FA00022F480620260216384F83D6084F83E1050
:103FB0002046FDF743FFE8E7E7622122226384F809
:103FC0003D6084F83E10416821F4E0614160206862
:103FD00045612068016821F4806101602046FFF797
:103FE0003DFB2046FEF72FF9CFE700000000FFFF62
:103FF000F8B590F83D6004460068416821F4E0613E
:1040000041602068002541690091016841F001018B
:1040100001602068016821F48061016020684168C6
:10402000090520D5474F222E48D02A2E46D0616B55
:10403000096849686185618D19B1216C41F00401FD
:104040002164416821F400614160606BFDF7A0FBD1
:10405000012808D0606B4763606BFDF74DFB10B122
:10406000606B416B8847608D08B320684169C94324
:10407000490708D40069616A0870606A401C606280
:10408000608D401E608520684169C943490608D497
:104090000069616A0870606A401C6062608D401E41
:1040A0006085608D18B1206C40F004002064206CA5
:1040B00000B32046BDE8F840FFF7D8BAA16B096805
:1040C00049686185618D19B1216C41F00401216459
:1040D000416821F400614160A06BFDF759FB0128A4
:1040E000C1D0A06B4763A06BFDF706FB0028BAD0D8
:1040F000A06BB6E72A2E06D12563282084F83D0060
:104100002046FEF79FF894F83D10202028290DD076
:10411000216B222901D0222E07D1256384F83D008E
:1041200084F83E502046FEF78DF8F8BD0649E1625E
:10413000256384F83D0084F83E502046FDF77EFE5E
:10414000F8BD0000A13500080000FFFF70B516465D
:104150000D4604461EE02046FFF734FB08B101205F
:1041600070BD681C16D0FDF721FC801BA84200D84A
:1041700085B920684069C04340070BD5002044F84A
:10418000300F20216173A073216941F0200121616A
:104190002073E4E720684069C0434007DBD4002077
:1041A00070BD00002DE9F047984617460D460446BD
:1041B000C1F30746DDF820902AE000BFB8F1FF3FC9
:1041C00026D0FDF7F3FBA0EB0901414502D8B8F179
:1041D000000F1DD12068012E16D0806925EA00004D
:1041E0000004000C12D00020B84211D1002044F885
:1041F000300F20216173A073216941F020012161FA
:1042000020730120BDE8F0874069E7E70120EBE774
:104210002068012E0AD0806925EA00000004000C05
:1042200006D00020B842C9D00020EBE74069F3E790
:104230000120F7E72DE9F047984616460D4604465B
:104240004FF000094FF0200AC1F3074723E0206830
:104250004069C043400515D42068016841F40071ED
:10426000016021686FF480604861C4F8309084F880
:104270003DA084F83E90216C41F00401216484F853
:104280003C9021E0701C06D0FDF790FBA0EB0800ED
:10429000B04203D816B1012F1FD021E02068012FB2
:1042A00015D0806925EA00000004000C18D000BF7A
:1042B00044F8309F84F80DA084F80E90216941F0F5
:1042C0002001216184F80C900120BDE8F08740694D
:1042D00025EA00000004000CEAD12068406901E0F2
:1042E0002068806925EA00000004000CAFD1ECE7EB
:1042F0002DE9F041002590460E460446202728E08F
:104300004069C043C0060CD454F8301B6FF0100055
:10431000486144F810596777A577206A20622577AD
:1043200014E0FDF743FBA0EB0800B04200D886B9CB
:1043300020684069C04340060BD544F8305F67737E
:10434000A573206940F02000206125730120BDE89D
:10435000F08120684169C9434906D1D40020F6E7BD
:1043600070B516460D4604461EE02046FFF72AFAB1
:1043700008B1012070BD681C16D0FDF717FB801B2B
:10438000A84200D885B920684069C04300060BD513
:10439000002044F8300F20216173A073216941F09F
:1043A000200121612073E4E720684069C0430006D2
:1043B000DBD4002070BD0000F0B500230A243025B6
:1043C00037261F4611E000BFB4EB107F02D905EB82
:1043D000107C01E006EB107C01F813C001EB430CEC
:1043E00000015B1C8CF80170DBB29342ECD3F0BD92
:1043F00070B586B00024244800940194029403947C
:10440000816941F010018161816901F0100104911D
:10441000816941F020018161816901F020010491ED
:10442000816941F004018161816901F00401049115
:10443000816941F0080181618069144E00F0080033
:104440004FF400550490002229463046FDF7A8FAA3
:104450000120CDE90050022569463046CDE90245EC
:10446000FDF7A6F90A480095CDE901046946094817
:10447000FDF79EF9002205210720FDF777FF0720B1
:10448000FDF766FF06B070BD00100240001001404D
:10449000000011100008014010B500220F4910481B
:1044A00000F0D0FD08B1FDF725F90E490C4800F0E9
:1044B000ADFF08B1FDF71EF90B49094800F0CEFB2E
:1044C00008B1FDF717F9064800F0F6FF002803D001
:1044D000BDE81040FDF70EB910BD0000240000201B
:1044E000000300206001002074000020FEE7FEE7CA
:1044F0002DE9F84F044640F68F7B48F60F794FF4CC
:1045000080684FF0000AC0E1B0F8441011F00F05C8
:1045100039D030F8256031047ED530F8251001EA15
:104520000B0141F0800120F8251005EB850004EB1C
:10453000C00797F8740107F5B47700286DD0F878B4
:1045400002286BD03978226832F8210048F68F7340
:10455000184048F2C003184322F821003978206837
:1045600030F82120B0F8503052047DD5022202EB01
:10457000C1015A1808EB4201415A8905890D009181
:1045800073D03A89DFE0C9062DD4018801EA090118
:1045900041F400410180206804F12805B0F8503052
:1045A0002978022202EBC1015A1808EB4201405A55
:1045B000C0F309006064E16B0844E0630021204619
:1045C000FDF725FF94F8240000289CD0A869002856
:1045D00099D194F82400216840F08000A1F84C00A3
:1045E00084F824A051E1018804F5B4750A0521D5A9
:1045F000B0F850202B78062101EBC3010A4408EBE8
:104600004201405A04F52C71C0F30903EB61EA88BA
:10461000206801F079FD02E0B0E070E080E0206801
:10462000018801EA0B0141F0800101802046FEF77C
:1046300058FB2AE10904D5D5018801EA0B0141F0B4
:10464000800101802068B0F850202B78062101EB12
:10465000C3010A4408EB4201405A83059B0DEB61FC
:1046600010D0696971B101E061E05FE0EA8820681B
:1046700001F04AFDE9696869084468610021204643
:10468000FDF7CEFE216808880205ABD4C0F30130E7
:104690000328A7D0B1F850000844B0F80C14C1F3B7
:1046A0000901A0F80C142A6900F20C403E2A09D92D
:1046B0005109D20600D1491E02884FF4004343EA53
:1046C000812109E0B2B15108D20700D0491C02880B
:1046D0004FF6FF7303EA81210A43028021680888AC
:1046E0004BF68F72104080F4405048F28002104325
:1046F0000880CAE0018841F400410180EEE72068AB
:10470000B0F850203B78062101EBC3010A4408EBC6
:104710004201415A8905890D009118D0FA8812E0AA
:10472000324639462046FDF7D9FE00900FE00622BA
:1047300002EBC1015A1808EB4201415A8905890D63
:10474000009104D07A897969009B01F0DDFCF86959
:1047500000990844F8617969009808447861B8695B
:1047600018B139690098814204D939782046FDF79B
:1047700057FE03E03946206801F042FA30062FD593
:1047800005EB850004EBC001206830F8252002EA23
:10479000090242F4004220F8252091F82B0028312C
:1047A00001281ED0F0056CD42068B0F850300D7888
:1047B000022202EBC5021A4408EB4202805A8A69BF
:1047C000C0F30900824255D9121A8A6154D04A694D
:1047D00002444A61CA691044C861206801F010FAB5
:1047E00053E0C1F818A0087B524608B3700620D5E4
:1047F000487810B1012812D03AE02068B0F8502073
:1048000010440A7800EB0210B0F80424C2F3090245
:10481000A0F80424B0F8042442F4004206E0206822
:10482000B0F8503018440B7800EB0310A0F80424C3
:104830001EE04B78206813B1012B11D018E0B0F8BE
:10484000502010440A7800EB0210B0F80C24C2F398
:104850000902A0F80C24B0F80C2442F4004205E050
:10486000B0F8503018440B7800EB0310A0F80C247B
:10487000097802E0C1F818A0E9B22046FDF7C7FDAB
:1048800003E032462046FDF79CFE2068B0F8441055
:1048900009043FF539AE0020BDE8F88FFFF7FCFDB5
:1048A000012001F027FDFBE710B5502080F31188AF
:1048B000BFF34F8FBFF36F8F02F05CFF18B1044955
:1048C0004FF080500860002080F3118810BD000078
:1048D00004ED00E030B593B028216846FBF725FED3
:1048E00014210AA8FBF721FE002401200F94109444
:1048F0001194010412948DE8130004904FF4E01019
:10490000CDE90810022507956846FEF78FFB08B130
:1049100072B6FEE70F20CDE90A054FF48060CDE9BD
:104920000C4002210AA80E94FEF784FA08B172B670
:10493000FEE710200F9012940FA8FEF705FA00284A
:1049400001D072B6FEE713B030BD70470148FEF7E4
:104950005ABD0000B8020020F0B50268164B174C93
:10496000174D4FF08047984205D0B84203D0A0427F
:1049700001D0A84203D122F070064A68324398421F
:1049800005D0B84203D0A04201D0A84203D122F4FE
:104990004074CA6822434C6922F0800222430260BC
:1049A0008A68C2620A688262984201D10969016319
:1049B00001214161F0BD0000002C014000040040D5
:1049C0000008004086B04FF47A7402F0CDFEA14694
:1049D000124C0490E06803F08BF807468846A06804
:1049E00003F086F805460E46606803F081F802463B
:1049F0008DE8E00109480B4609A11430FBF75CFC87
:104A000006481430FBF7F3FC81B204481430FCF77D
:104A100057FE494604A802F08BFADBE76402002047
:104A2000416363656C65726174696F6E205B6D2FA5
:104A300073325D3A2041783D252E33660941793D38
:104A4000252E336609417A3D252E33660A0D000076
:104A500008B502F089FE00900348FCF783FD0121B0
:104A6000684602F065FAF7E76402002008B54FF4E3
:104A7000FA7402F079FE064E4FF400550090294674
:104A80003046FCF785FF2146684602F051FAF6E70A
:104A9000001001402DE9F041D0F8C032D0F8B82222
:104AA000CAB101EB810500EB85040026E7693FB13F
:104AB00003EBC5039B6BB7FBF3F503FB157323B146
:104AC000C2F814620020BDE8F08100231A46E661B6
:104AD00000F07FFCF6E70220F5E770B50546D0F858
:104AE000B84200F07AFBC4F80C02D5F8B80248B11D
:104AF000D5F8BC12D4F80402CA6804F503719047D3
:104B0000002070BD022070BD70B5044600268121D2
:104B100000F0B6FA002501212046E56200F0B0FA67
:104B200082212046C4F86C5100F0AAFA2564D4F81A
:104B3000B80248B1D4F8BC0204F52E74406880472E
:104B4000206800F016FE2560304670BD10B5D0E933
:104B5000AE4159B194F80002FF2807D08B6894F851
:104B6000012221469847FF2084F80002002010BD52
:104B70000A210180004870478800002043210180FD
:104B800000487047D800002043210180004870474A
:104B90009400002043210180004870471C01002040
:104BA0002DE9F04104460026007C4FF400770125F2
:104BB00090B3402302228121204600F063FB402372
:104BC000E56202220121204600F05CFB082303225B
:104BD00082212046C4F86C5100F054FB4FF407705A
:104BE000256400F0C7FDC4F8B802F8B10546D4F852
:104BF000BC02006880470020C5F81402C5F81802FE
:104C0000207CD5F8042298B140230121204600F0F1
:104C100045FB3046BDE8F081FFE73B46022281219B
:104C2000204600F02FFB3B46E562CAE70126F0E78D
:104C30003B46EAE710B5D0F8B81269B1027C002A09
:104C4000D1F8042205D04023012100F027FB0020E9
:104C500010BD4FF40073F7E7022010BD024602209A
:104C6000002902D00020C2F8BC127047D0F8B80268
:104C7000C0F8041200207047D0F8B802C0F8102223
:104C8000C0F80812002070472DE9FC410546D0F815
:104C9000B87200208DF80000ADF8040006460878D0
:104CA0000C4610F0600121D020293BD1E288AAB146
:104CB0000006607807D5D5F8BC128B68394698474E
:104CC000E288394626E087F80002A07987F80102D9
:104CD000E2883946284600F06AF828E0D5F8BC1288
:104CE000607800228B682146984720E0607820B1E8
:104CF0000A2809D00B2815D110E095F89C0203284A
:104D000010D1022201A905E095F89C02032809D1DF
:104D100001226946284600F064F808E095F89C02F4
:104D2000032804D02146284600F036F802263046F3
:104D3000BDE8FC8110B5D0F8B812A1B1D1F81422A9
:104D40000AB1012010BD0122C1F81422D1F81022AD
:104D50000263B1F8102293B2D1F80822812100F049
:104D600038FB002010BD022010BD10B5D0F8B422D1
:104D700052689047002010BD134610B50A46002126
:104D800000F08CFA002010BD134610B50A46002131
:104D900000F01FFB002010BD10B50446802100F07C
:104DA000FDFA2046BDE81040002100F0F7BA10B52A
:104DB0000323C0F85C21C0F89432C0F86021134688
:104DC0000A46002100F06AFA002010BD10B5052146
:104DD0000023C0F894121A46194600F05FFA00202A
:104DE00010BD10B50223C261C0F8943202621346AE
:104DF0000A46002100F0EDFA002010BD10B5042194
:104E00000023C0F894121A46194600F0E2FA002076
:104E100010BD000010B50A46024903A000F0E2F8F8
:104E2000004810BDC405002043444320436F6E6614
:104E30006967000012200880004870474400002085
:104E400010B50A46024903A000F0CCF8004810BD96
:104E5000C405002043444320496E74657266616353
:104E600065000000042008800048704740000020D2
:104E700010B50A46024903A000F0B4F8004810BD7E
:104E8000C405002053544D6963726F656C6563748B
:104E9000726F6E696373000010B50A46024903A081
:104EA00000F0A0F8004810BDC405002053544D3355
:104EB00032205669727475616C20436F6D506F7249
:104EC0007400000010B51A2008800A480168001D0F
:104ED0000468001D0068081809D008220649FFF779
:104EE0006BFA0549042210312046FFF765FA0248A3
:104EF000801E10BDE8F7FF1F5A000020F8B50446D9
:104F00000020ADF8000048880D46010A082948D263
:104F1000DFE801F04704091747473C45D4F8B012D1
:104F2000207C0A6819E0207C02260028D4F8B4020C
:104F300005D0C16A68468847014646703EE0816AEE
:104F4000F8E7C0B206282CD2DFE800F0030A1014FC
:104F5000181CD4F8B002426805E0694690471CE08E
:104F6000D4F8B0028268E2B1207CF6E7D4F8B0024F
:104F7000C268F8E7D4F8B0020269F4E7D4F8B002E6
:104F80004269F0E7D4F8B0028269ECE7207C40B9CE
:104F9000D4F8B402416B6846884701460EE0207C95
:104FA00020B129462046FFF7F7FEF8BDD4F8B40239
:104FB000016B68468847014607204870BDF800002D
:104FC00048B1EA8852B1824200D90246ADF80020C9
:104FD0002046FFF706FFE8880028E6D12046FFF7C5
:104FE0000DFFF8BD70B5002300281ED00446002533
:104FF00002E06D1CEDB2641C2678002EF9D102246B
:1050000004EB450414801278CA545B1C0322CA5472
:1050100000245B1C06E0CA545B1CDAB28C54521CA0
:10502000D3B2401C0278002AF5D170BD01004FF0C8
:10503000000004D0012901D0022901D002207047CC
:105040000120704710B580B1D0F8B43213B10023FD
:10505000C0F8B43209B1C0F8B012012180F89C1236
:10506000027000F0BFF8002010BD022010BD10B586
:10507000D0F8C002FDF704FABDE81040FFF7D6BF34
:1050800010B5D0F8C002FDF7D5F9BDE81040FFF724
:10509000CDBF2DE9F0411746044651B1D4F8B40212
:1050A00042691AB194F89C02032851D00220BDE84D
:1050B000F081D4F89432002504F11400022B03D0BF
:1050C000042B3AD0C3B33CE0D0E903639E4207D936
:1050D000F11AC1608AB239462046FFF755FE12E048
:1050E0008068B0FBF3F103FB110199B9984211D329
:1050F000D4F8981288420DD2002211462046FFF7BC
:1051000043FEC4F8985200231A461946204600F080
:10511000C5F816E0D4F8B402C16829B194F89C022D
:10512000032801D1204688478021204600F036F927
:105130002046FFF74BFE04E0FFE78021204600F009
:105140002DF994F8A002012804D184F8A05201E0BE
:10515000204690470020AAE770B51546044649B19D
:10516000D4F8B40282691AB194F89C02032830D0B2
:10517000022070BDD4F8941204F5AA70032902D05D
:1051800005291ED027E0D0E903218A420BD9531A02
:10519000C3600846834200D303469AB2294620469C
:1051A000FFF7EAFD17E0D4F8B402016929B194F8D9
:1051B0009C02032801D1204688472046FFF71EFEA7
:1051C00009E000200146C4F89402204600F0E6F809
:1051D00001E020469047002070BDD0F8C002FDF7E6
:1051E0008CBB000010B504461C481D49C0F8EC42B9
:1051F000C4F8C002016008214160022181600021E1
:105200008161C1610162FDF7B1FC08B1FCF772FA7E
:105210000022D4F8C0021823114604F53074FDF7BB
:10522000D7F85823002280212068FDF7D1F8C02349
:10523000002281212068FDF7CBF84FF4887300220B
:1052400001212068FDF7C4F84FF480730022822109
:105250002068FDF7BDF8002010BD0000E41100201B
:10526000005C00400A0601F07F01D0F8C00201EBAB
:10527000810100EBC10002D590F82A00704790F838
:105280006A01704710B51C461346D0F8C00222468A
:10529000FDF73CFBBDE81040FFF7C8BE10B5D0F8E5
:1052A000C002FDF760FBBDE81040FFF7BFBE70B560
:1052B0000022044640231146FFF7E4FF4026012563
:1052C000C4F864613346002280212046C4F8585156
:1052D000FFF7D8FF6662A56184F89C520020C4F8ED
:1052E00094026060C4F8A402D4F8B80228B1D4F8DB
:1052F000B4020021426820469047002070BD90F81B
:105300009C12042903D190F89D1280F89C12002071
:10531000704710B590F89C12032904D1D0F8B4124C
:10532000C96901B18847002010BD01740020704791
:1053300010B5D0F8C002FDF7C0FCBDE81040FFF783
:1053400075BE70B5044600F52A70054600F04AF8AF
:105350000120C4F89402B4F8AE02C4F8980294F89C
:10536000A80210F01F010AD001290DD0022910D087
:1053700000F08001204600F011F8002070BD2946A1
:10538000204600F09EF8F8E72946204600F0CAF9CA
:10539000F3E72946204600F01DF9EEE710B5D0F8F6
:1053A000C002FDF7F7FABDE81040FFF73FBE10B5A9
:1053B000D0F8C002FDF79CFCBDE81040FFF736BEF8
:1053C00090F89C1280F89D12042180F89C12002015
:1053D000704710B5D0F8C002FDF715FBBDE81040CE
:1053E000FFF724BE0A7802704A7842708A78CB7838
:1053F00002EB032242800A794B7902EB032282807E
:105400008A79C97902EB0121C180704702460020E8
:1054100011B1C2F8B41270470220704710B5D0F82D
:10542000B42202241AB11268904700B90024204621
:1054300010BD000070B50E461E4D897804462970D7
:10544000012931D894F89C0202280BD003280FD0F0
:1054500031462046FFF7A0FC29782046BDE8704081
:10546000FFF783BCD9B10320616084F89C0209E096
:1054700071B16068884212D0C1B22046FFF775FC56
:10548000297861602046FFF7C9FF02280CD006E0AA
:10549000022084F89C0220466160FFF766FC2046EB
:1054A000BDE87040FFF7AABC31462046BDE8704019
:1054B000FFF772BC8400002010B5FFF778FF0020D2
:1054C00010BD2DE9F0410A78002612F0600208D0E4
:1054D000202A01D0402A70D1D0F8B4229268904797
:1054E0006DE04B78002201250A2B66D2DFE803F03D
:1054F000405D6557650805652C29FFF7FFFC5EE0F8
:1055000004468888D8B9C888C8B94888802816D27F
:1055100000F07F0794F89C02032810D084F89E7254
:1055200039462046FFF704FF2046FFF767FC1FB10E
:10553000022084F89C0242E084F89C523FE020461E
:105540003BE0FFF777FF3AE0CB88012B35D190F8AD
:105550009C32012B04D0022B02D0032B2DD104E06E
:105560008260012200F1080116E00122011D13E012
:1055700090F89C22012A03D0022A01D0032A1CD1D0
:10558000CA88022A19D1C560D0F8A41209B1032132
:10559000C160022200F10C01FFF723FC0FE04988F3
:1055A00001290CD1C0F8A45211E090F89C32012BD3
:1055B00008D0022B06D0032B04D0FFF7EDFB3046BA
:1055C000BDE8F08149880129F9D1C0F8A422FFF78C
:1055D00015FCF4E72DE9F0410A460446107800274F
:1055E000097910F060030AD0202B01D0402B50D154
:1055F000D4F8B40211468368204698478FE0C0F380
:105600004110012806D05078D0B301282AD00328B1
:105610003FD107E0D4F8B402114683682046BDE8C4
:10562000F041184794F89C02022802D0032872D156
:105630000AE071B380296ED02046FFF7AFFE8021CB
:105640002046FFF7ABFE6AE0508838B931B18029B7
:1056500004D0D08810B92046FFF7A0FE2046FFF7FF
:10566000CDFB5CE094F89C020228E2D0032852D1E2
:10567000508898BB4806F1D02046FFF7F8FCEDE7CC
:10568000FFE794F89C020026022803D0032842D1A9
:1056900012E040E009B180293DD1080601F07F0009
:1056A00000EB800004EB800101D5143101E001F52D
:1056B000AA7102220E602AE0080601F00F0000EB3A
:1056C000800004EB80000AD5806920B301F07F00E0
:1056D00000EB800004EB800514350BE01FE0D0F8F0
:1056E0005801C0B101F07F0000EB800004EB8005A1
:1056F00005F5AA7541B1802906D02046FFF7B2FD15
:1057000010B10120286000E02E60022229462046C8
:10571000FFF767FB03E011462046FFF73DFB3846E5
:10572000BDE8F08170B5054608780C4610F06000C1
:1057300003D0202801D0402816D195F89C020128DA
:1057400003D0022801D003280ED1207901280BD8DC
:10575000D5F8B402826828469047E188014306D113
:105760002846FFF74BFB02E02846FFF715FB002019
:1057700070BD704700487047C40F00202DE9F04706
:105780000C78002630F8243048F68F121340CA787F
:10579000002A78D0012A7CD0022A02D0032A75D0B0
:1057A000012648F28002134320F824300D7830F8A7
:1057B000253048F68F7423402B43134320F82530BF
:1057C0000D7B48F2C00948F6BF734CF2800A4BF6D5
:1057D0008F77EDB3CD7891F800C0022D30F82C50C2
:1057E0007DD048F68F6805EA0805154320F82C504F
:1057F000B0F8505091F800C0054405EB0C15B1F815
:1058000008C02CF0010CA5F800C4B0F8505091F875
:1058100000C0054405EB0C15B1F80AC02CF0010CD2
:10582000A5F808C44D78002D7ED00D7830F825C03D
:105830005FEA4C4C07D530F825C00CEA040C4CEA62
:105840000A0C20F825C091F800C030F82C5000E078
:1058500022E06D0606D530F82C50254045EA0905B2
:1058600020F82C50CC780D78012C30F8254004EA33
:1058700003047CD084F02003134320F82530C1E0DA
:1058800001E006E002E043F400738AE743F4C063FA
:1058900087E743F4806384E74D784DB3B0F8505008
:1058A0000F78054405EB0715CF8827F00107A5F809
:1058B00000740F7830F827506D0606D530F8275061
:1058C000254045EA090520F82750CC78012C07D05F
:1058D0000C7830F82410194081F0200104E064E0D5
:1058E0000C7830F824101940114320F8241090E06F
:1058F000B0F850300D78034403EB0513CD8825F044
:105900000105A3F80854B0F850300D78034403EBB8
:105910000513B3F80C54C5F30905A3F80C540D692D
:1059200003F20C433E2D00E045E00BD94FEA551C35
:10593000ED0601D1ACF1010C1D884FF4004848EA96
:105940008C2C0BE035B34FEA550CED0701D00CF170
:10595000010C1D884FF6FF7808EA8C2C45EA0C05EF
:105960001D800D7830F825305B0408D500E046E056
:1059700030F82530234043EA0A0320F8253009781F
:1059800061B130F821303B4083F40053134320F8D9
:1059900021303EE01D8845F40045E1E701883940AB
:1059A00081F440511143018033E0254048F28018D2
:1059B00045EA08051AE791F800C030F82C506D044C
:1059C00006D530F82C50254045EA0A0520F82C5021
:1059D00091F800C030F82C506D0606D530F82C50E8
:1059E000254045EA090520F82C500D7830F825406F
:1059F0003C4084F44054144320F8254070E714439D
:105A000020F825400B7830F823103940114320F856
:105A100023103046BDE8F087002070472DE9F043A1
:105A200091F80C804F780A7848F6BF7C4BF68F7956
:105A300048F2800348F2C0054CF2800648F68F74A5
:105A4000B8F1000F28D0002F30F822704FEA4747F6
:105A500048D0002F05DA30F822702740374320F86D
:105A600022700A7830F822707F0605D530F822704F
:105A700027402F4320F822700D7830F8252022404F
:105A8000324320F825200C7830F8242002EA0C025A
:105A90001A4320F824201AE07FB130F822607606FD
:105AA00005D530F8226026402E4320F822600A787F
:105AB00030F8221001EA0C010EE030F822506D049B
:105AC00005D530F822502540354320F822500A7879
:105AD00030F8221001EA0901194320F822100020B1
